:1000000000308A0036280000831A0A28A400030E54
:10001000A5000F288312A400030EA500A5140A084A
:10002000AB008A018313A40E0408A6002008A700D1
:100030002108A8002208A9002308AA0083128B1E09
:1000400023280B193C28260884002708A00028082C
:10005000A1002908A2002A08A3002B088A00250E67
:1000600083008312240EA51883160900FF2383162C
:10007000900000308A006B2801308316850007301D
:100080008312990083160508850003308312A000AF
:10009000A00B482819088C111F1383161F109F10DE
:1000A0001F119F1183121F100B118A112328333047
:1000B0008400000803196A280130A100A001A00BE8
:1000C0005F28A10B5E284A30A000A00B6528682895
:1000D000800B5C28080003081F3983001F13831658
:1000E0001F109F101F119F110730831299000130BC
:1000F000AD000B1583168510831285100730AF00F5
:100100000830AE001E30B0000130B1000518BC2828
:10011000FA30B30057200518BB282E082F04031906
:10012000BB288316851083128514051CAB28B008E4
:100130000319AA288316851002308312850604301D
:10014000B200FA30B3005720B20BA128B003051C4F
:100150007E289728BB280430B200FA30B30057201D
:10016000B20BAD282E080319AF03AE03831685101A
:0C017000831285108D2886287A286300F1
:02400E00D411CB
:00000001FF
;PIC12F675
;CRC=A0FA  CREATED="02-Sep-20 12:53"
